:1000000012C024C023C022C021C020C01FC01EC0F7
:100010001DC01CC01BC01AC019C018C017C016C014
:1000200015C014C013C011241FBECFE5D4E0DEBF3D
:10003000CDBF10E0A0E6B0E0EEE9F0E002C0059030
:100040000D92A036B107D9F702D027C0D9CF87B318
:10005000866087BB8FB581608FBD8FB5806A8FBD8D
:100060008EB583608EBD1BBC1ABC19BC18BC8FE05A
:1000700081BB939A9298909A91988FEF90E0869B8B
:1000800002C0859905C09BBD8ABD99BD88BDF7CFCB
:0E0090001BBC1ABC19BC18BCF2CFF894FFCFF1
:00000001FF
